:020000040000FA
:100000000C9462000C948A000C948A000C948A0070
:100010000C948A000C948A000C948A000C948A0038
:100020000C948A000C948A000C948A000C948A0028
:100030000C948A000C948A000C948A000C948A0018
:100040000C94AF020C948A000C947D020C9457021D
:100050000C948A000C948A000C948A000C948A00F8
:100060000C948A000C948A000000000024002700F1
:100070002A000000000023002600290000000000E4
:10008000250028002B0004040404040404040202D4
:100090000202020203030303030301020408102007
:1000A0004080010204081020010204081020000012
:1000B0000008000201000003040700000000000027
:1000C0000000360511241FBECFEFD8E0DEBFCDBF44
:1000D00011E0A0E0B1E0E0EDFFE002C005900D927C
:1000E000A232B107D9F721E0A2E2B1E001C01D922E
:1000F000A83CB207E1F710E0C2E6D0E004C02197C7
:10010000FE010E94E007C136D107C9F70E943E03F5
:100110000C94E6070C940000E1EBF0E02491EDE98B
:10012000F0E09491E9E8F0E0E491EE23C9F02223B5
:1001300039F0233001F1A8F4213019F1223029F1EE
:10014000F0E0EE0FFF1FE458FF4FA591B4912FB7D9
:10015000F894EC91811126C090959E239C932FBF1B
:1001600008952730A9F02830C9F0243049F72091AC
:1001700080002F7D03C0209180002F772093800086
:10018000DFCF24B52F7724BDDBCF24B52F7DFBCF68
:100190002091B0002F772093B000D2CF2091B000F3
:1001A0002F7DF9CF9E2BDACFAF92BF92CF92DF9205
:1001B000EF92FF920F931F93CF93DF936C017B011C
:1001C0008B01040F151FEB015E01AE18BF08C017AD
:1001D000D10759F06991D601ED91FC910190F08120
:1001E000E02DC6010995892B79F7C501DF91CF91E3
:1001F0001F910F91FF90EF90DF90CF90BF90AF9045
:100200000895FC01538D448D252F30E0842F90E01C
:10021000821B930B541710F0CF9608950197089501
:10022000FC01918D828D981761F0A28DAE0FBF2FCA
:10023000B11D5D968C91928D9F5F9F73928F90E020
:1002400008958FEF9FEF0895FC01918D828D98178F
:1002500031F0828DE80FF11D858D90E008958FEFCC
:100260009FEF0895FC01918D228D892F90E0805C95
:100270009F4F821B91098F73992708958BE291E01C
:100280000E94320121E0892B09F420E0822F089599
:1002900080E090E0892B29F00E943E0181110C94AE
:1002A00000000895FC01A48DA80FB92FB11DA35A19
:1002B000BF4F2C91848D90E001968F739927848F86
:1002C000A689B7892C93A089B1898C9183708064A9
:1002D0008C93938D848D981306C00288F389E02D4A
:1002E00080818F7D80830895EF92FF920F931F93FB
:1002F000CF93DF93EC0181E0888F9B8D8C8D9813D9
:100300001AC0E889F989808185FF15C09FB7F894E4
:10031000EE89FF896083E889F98980818370806430
:1003200080839FBF81E090E0DF91CF911F910F917B
:10033000FF90EF900895F62E0B8D10E00F5F1F4F8A
:100340000F731127E02E8C8D8E110CC00FB607FC99
:10035000FACFE889F989808185FFF5CFCE010E9427
:100360005201F1CFEB8DEC0FFD2FF11DE35AFF4F42
:10037000F0829FB7F8940B8FEA89FB8980818062B5
:10038000CFCFCF93DF93EC01888D8823B9F0AA8972
:10039000BB89E889F9898C9185FD03C0808186FD40
:1003A0000DC00FB607FCF7CF8C9185FFF2CF80818F
:1003B00085FFEDCFCE010E945201E9CFDF91CF91B1
:1003C00008953FB7F8948091270190912801A0915A
:1003D0002901B0912A0126B5A89B05C02F3F19F02D
:1003E0000196A11DB11D3FBFBA2FA92F982F8827B5
:1003F000BC01CD01620F711D811D911D42E0660F90
:10040000771F881F991F4A95D1F70895FC01019025
:100410000020E9F73197AF01481B590BBC018BE273
:1004200091E00C94D4008F929F92AF92BF920F9361
:100430001F93CF93DF93CDB7DEB7A1970FB6F89494
:10044000DEBF0FBECDBF19A2423008F44AE08E01D4
:100450000F5D1F4F842E912CB12CA12CA50194016E
:100460000E949F07E62FB901CA01EA30F4F4E05D6B
:10047000D801EE938D01232B242B252B79F790E0C7
:1004800080E0109719F0CD010E940602A1960FB6E8
:10049000F894DEBF0FBECDBFDF91CF911F910F91BA
:1004A000BF90AF909F908F900895E95CE1CF1F922D
:1004B0000F920FB60F9211242F933F934F935F9398
:1004C0006F937F938F939F93AF93BF93EF93FF931C
:1004D0008BE291E00E945201FF91EF91BF91AF91A9
:1004E0009F918F917F916F915F914F913F912F914C
:1004F0000F900FBE0F901F9018951F920F920FB67E
:100500000F9211242F938F939F93EF93FF93E0917A
:100510003B01F0913C018081E0914101F091420169
:1005200082FD1BC09081809144018F5F8F73209169
:100530004501821741F0E0914401F0E0E55DFE4F96
:10054000958F80934401FF91EF919F918F912F910F
:100550000F900FBE0F901F9018958081F4CF1F92BF
:100560000F920FB60F9211242F933F938F939F9367
:10057000AF93BF938091230190912401A091250115
:10058000B09126013091220123E0230F2D3758F539
:100590000196A11DB11D2093220180932301909308
:1005A0002401A0932501B093260180912701909109
:1005B0002801A0912901B0912A010196A11DB11D28
:1005C0008093270190932801A0932901B0932A01D9
:1005D000BF91AF919F918F913F912F910F900FBE3F
:1005E0000F901F90189526E8230F0296A11DB11DAC
:1005F000D2CFCF92DF92EF92FF920F931F93E82F0B
:10060000F92F05C0015011092109310961F19081CB
:1006100096239417B9F305C0015011092109310936
:1006200011F1908196239413F7CFC12CD12CE12C9A
:10063000F12C0AC08FEFC81AD80AE80AF80A0C157C
:100640001D052E053F0579F080818623841791F3DF
:100650006C2D7D2D8E2D9F2D1F910F91FF90EF9072
:10066000DF90CF90089560E070E080E090E01F910F
:100670000F91FF90EF90DF90CF900895789484B51C
:10068000826084BD84B5816084BD85B5826085BD8E
:1006900085B5816085BD80916E00816080936E001C
:1006A000109281008091810082608093810080910E
:1006B00081008160809381008091800081608093BF
:1006C00080008091B10084608093B1008091B0007F
:1006D00081608093B00080917A00846080937A007A
:1006E00080917A00826080937A0080917A008160A4
:1006F00080937A0080917A00806880937A001092CB
:10070000C100E0913B01F0913C0182E08083E091E7
:100710003701F09138011082E0913901F0913A01EE
:100720008FEC808310924301E0913F01F0914001F2
:1007300086E08083E0913D01F0913E0180818061FF
:100740008083E0913D01F0913E018081886080834B
:10075000E0913D01F0913E01808180688083E091CD
:100760003D01F0913E0180818F7D8083EDE9F0E0D5
:100770002491E9E8F0E08491882399F090E0880FD3
:10078000991FFC01E859FF4FA591B491FC01E45871
:10079000FF4F859194918FB7F894EC91E22BEC93F5
:1007A0008FBFECE9F0E02491E8E8F0E08491882341
:1007B000C1F090E0880F991FFC01E859FF4FA59107
:1007C000B491FC01E458FF4FC591D4913FB7F89420
:1007D0009C91822F809598239C939881892388836C
:1007E0003FBFC3E0D0E020E0222E20E0322E0E9466
:1007F000E1016B017C0198EC892E912CA12CB12C8C
:100800000E94E1016C197D098E099F09683E7340C1
:1008100081059105A8F3F1E08F1A9108A108B108AC
:1008200028EEC20E23E0D21EE11CF11C81149104BB
:10083000A104B10429F7F1E4F0937C0080917A00DF
:10084000806480937A0080917A0086FDFCCF80914D
:10085000780060917900762F682F072E000C880BA6
:10086000990B0E94780620E030E040E85AE30E94AD
:100870002D0720E030E44CE955E40E942D0720E0EC
:1008800030E040E251E40E94D5056B017C014B0150
:100890005C01AC019B010E949A07882309F452C0B5
:1008A00082E191E00E9406028EE191E00E94060240
:1008B00080E00E948C00CE010197F1F781E00E9458
:1008C0008C0083E290E00197F1F780E00E948C00B9
:1008D000ECE9F0E06491E8E8F0E08491E82FF0E0E2
:1008E000EE0FFF1FEE58FF4F8591949100E412E444
:1008F0002FE030E0462F0E94F90261157105810555
:10090000910529F06F5F7F4F8F4F9F4F9F702AE3B4
:1009100030E040E050E00E94C107CA01B9014AE05E
:100920000E9413028EE191E00E940602211431041C
:1009300009F45DCF0E943E01882309F458CF0E943C
:10094000000055CF26013701E89477F82FEF3FEFED
:100950004FE75FE7C301B2010E949A0781110DC002
:100960002FEF3FEF4FE75FE7C301B2010E94D005D1
:1009700018161CF486E191E095CF2FEF3FEF4FE77B
:100980005FE4C701B6010E94280718161CF48AE12B
:1009900091E088CF2FEF3FEF4FE75FECC701B60143
:1009A0000E94D00587FDF3CF20E030E0A901C70108
:1009B000B6010E94D00587FF0BC06DE28BE291E08B
:1009C0000E94740146015701B7FAB094B7F8B09489
:1009D0002AE037ED43EA5BE3C501B4010E946405F8
:1009E0004B015C010E9447066B017C010E94760668
:1009F0009B01AC01C501B4010E9463054B015C0180
:100A00004AE0C701B6010E9413026EE28BE291E058
:100A10000E94740120E030E040E251E4C501B401DD
:100A20000E942D074B015C010E9447066B01F12CCF
:100A3000E12C4AE0C701B6010E941302C701B601CA
:100A40000E9476069B01AC01C501B4010E946305BA
:100A500020E030E040E251E40E942D070E9447066A
:100A600090E080E04AE00E9413021ECFEBE2F1E04A
:100A70001382128288EE93E0A0E0B0E08483958335
:100A8000A683B78384E091E09183808385EC90E036
:100A90009587848784EC90E09787868780EC90E048
:100AA000918B808B81EC90E0938B828B82EC90E039
:100AB000958B848B86EC90E0978B868B118E128EB3
:100AC000138E148E08955058BB27AA270E947B05C9
:100AD0000C94EE060E94E00638F00E94E70620F033
:100AE00039F49F3F19F426F40C94DD060EF4E095DA
:100AF000E7FB0C94D706E92F0E94FF0658F3BA17BC
:100B0000620773078407950720F079F4A6F50C9423
:100B100021070EF4E0950B2EBA2FA02D0B01B90181
:100B200090010C01CA01A0011124FF27591B99F063
:100B3000593F50F4503E68F11A16F040A22F232F6F
:100B4000342F4427585FF3CF469537952795A795BF
:100B5000F0405395C9F77EF41F16BA0B620B730B66
:100B6000840BBAF09150A1F0FF0FBB1F661F771FD7
:100B7000881FC2F70EC0BA0F621F731F841F48F48C
:100B8000879577956795B795F7959E3F08F0B0CF15
:100B90009395880F08F09927EE0F979587950895FC
:100BA0000E94B30608F481E008950E94E9050C94C0
:100BB000EE060E94E70658F00E94E00640F029F495
:100BC0005F3F29F00C94D70651110C9422070C9426
:100BD000DD060E94FF0668F39923B1F3552391F3D4
:100BE000951B550BBB27AA2762177307840738F09C
:100BF0009F5F5F4F220F331F441FAA1FA9F335D0F9
:100C00000E2E3AF0E0E832D091505040E695001CAC
:100C1000CAF72BD0FE2F29D0660F771F881FBB1F66
:100C2000261737074807AB07B0E809F0BB0B802D44
:100C3000BF01FF2793585F4F3AF09E3F510578F070
:100C40000C94D7060C9422075F3FE4F3983ED4F34C
:100C5000869577956795B795F7959F5FC9F7880F44
:100C6000911D9695879597F90895E1E0660F771F96
:100C7000881FBB1F621773078407BA0720F0621B27
:100C8000730B840BBA0BEE1F88F7E09508950E9452
:100C9000070788F09F5798F0B92F9927B751B0F000
:100CA000E1F0660F771F881F991F1AF0BA95C9F7F0
:100CB00014C0B13091F00E942107B1E008950C9466
:100CC0002107672F782F8827B85F39F0B93FCCF319
:100CD000869577956795B395D9F73EF4909580956D
:100CE000709561957F4F8F4F9F4F0895E89409C08D
:100CF00097FB3EF490958095709561957F4F8F4F4F
:100D00009F4F9923A9F0F92F96E9BB279395F69564
:100D1000879577956795B795F111F8CFFAF4BB0FE2
:100D200011F460FF1BC06F5F7F4F8F4F9F4F16C046
:100D3000882311F096E911C0772321F09EE8872FD0
:100D4000762F05C0662371F096E8862F70E060E08C
:100D50002AF09A95660F771F881FDAF7880F969505
:100D6000879597F90895990F0008550FAA0BE0E8A9
:100D7000FEEF16161706E807F907C0F0121613065D
:100D8000E407F50798F0621B730B840B950B39F49D
:100D90000A2661F0232B242B252B21F408950A2603
:100DA00009F4A140A6958FEF811D811D089597F943
:100DB0009F6780E870E060E008959FEF80EC089501
:100DC00000240A941616170618060906089500242A
:100DD0000A9412161306140605060895092E0394A4
:100DE000000C11F4882352F0BB0F40F4BF2B11F418
:100DF00060FF04C06F5F7F4F8F4F9F4F089557FD77
:100E00009058440F551F59F05F3F71F04795880F78
:100E100097FB991F61F09F3F79F08795089512160F
:100E200013061406551FF2CF4695F1DF08C01616BB
:100E300017061806991FF1CF86957105610508946C
:100E40000895E894BB2766277727CB0197F9089583
:100E50000E94B30608F48FEF08950E9440070C9497
:100E6000EE060E94E00638F00E94E70620F0952387
:100E700011F00C94D7060C94DD0611240C94220773
:100E80000E94FF0670F3959FC1F3950F50E0551F28
:100E9000629FF001729FBB27F00DB11D639FAA27CF
:100EA000F00DB11DAA1F649F6627B00DA11D661F1E
:100EB000829F2227B00DA11D621F739FB00DA11D3F
:100EC000621F839FA00D611D221F749F3327A00DF9
:100ED000611D231F849F600D211D822F762F6A2F95
:100EE00011249F5750409AF0F1F088234AF0EE0FFA
:100EF000FF1FBB1F661F771F881F91505040A9F727
:100F00009E3F510580F00C94D7060C9422075F3F5A
:100F1000E4F3983ED4F3869577956795B795F79562
:100F2000E7959F5FC1F7FE2B880F911D96958795DA
:100F300097F908950E94B306880B990B0895A1E2D2
:100F40001A2EAA1BBB1BFD010DC0AA1FBB1FEE1F43
:100F5000FF1FA217B307E407F50720F0A21BB30B8E
:100F6000E40BF50B661F771F881F991F1A9469F70A
:100F700060957095809590959B01AC01BD01CF0166
:100F80000895052E97FB1EF400940E94D80757FD84
:100F900007D00E949F0707FC03D04EF40C94D8079B
:100FA00050954095309521953F4F4F4F5F4F089595
:100FB00090958095709561957F4F8F4F9F4F0895C5
:100FC000EE0FFF1F0590F491E02D0994F894FFCFE8
:100FD000000000007401D4000101C10132011001C0
:100FE00024016E616E00696E66006F7666000D0A00
:020FF0000000FF
:107E0000112484B714BE81FFF0D085E080938100F7
:107E100082E08093C00088E18093C10086E0809377
:107E2000C20080E18093C4008EE0C9D0259A86E02C
:107E300020E33CEF91E0309385002093840096BBD3
:107E4000B09BFECF1D9AA8958150A9F7CC24DD24C4
:107E500088248394B5E0AB2EA1E19A2EF3E0BF2EE7
:107E6000A2D0813461F49FD0082FAFD0023811F036
:107E7000013811F484E001C083E08DD089C08234E0
:107E800011F484E103C0853419F485E0A6D080C0E4
:107E9000853579F488D0E82EFF2485D0082F10E0AE
:107EA000102F00270E291F29000F111F8ED06801E7
:107EB0006FC0863521F484E090D080E0DECF843638
:107EC00009F040C070D06FD0082F6DD080E0C81688
:107ED00080E7D80618F4F601B7BEE895C0E0D1E017
:107EE00062D089930C17E1F7F0E0CF16F0E7DF06D8
:107EF00018F0F601B7BEE89568D007B600FCFDCFD4
:107F0000A601A0E0B1E02C9130E011968C91119780
:107F100090E0982F8827822B932B1296FA010C0160
:107F200087BEE89511244E5F5F4FF1E0A038BF0790
:107F300051F7F601A7BEE89507B600FCFDCF97BE46
:107F4000E89526C08437B1F42ED02DD0F82E2BD052
:107F50003CD0F601EF2C8F010F5F1F4F84911BD097
:107F6000EA94F801C1F70894C11CD11CFA94CF0C13
:107F7000D11C0EC0853739F428D08EE10CD085E9AC
:107F80000AD08FE07ACF813511F488E018D01DD067
:107F900080E101D065CF982F8091C00085FFFCCF94
:107FA0009093C60008958091C00087FFFCCF809118
:107FB000C00084FD01C0A8958091C6000895E0E648
:107FC000F0E098E1908380830895EDDF803219F02E
:107FD00088E0F5DFFFCF84E1DECF1F93182FE3DFCA
:107FE0001150E9F7F2DF1F91089580E0E8DFEE27F6
:047FF000FF270994CA
:027FFE00040479
:00000001FF
